:100000000C9471020C94B5020C94B5020C94B502D8
:100010000C94B5020C94B5020C94B5020C94B50284
:100020000C94B5020C94B5020C943A0E0C940C0F7F
:100030000C94191D0C94B5020C94B5020C94B502E5
:100040000C94B5020C94B5020C94B5020C94B50254
:100050000C94B5020C94811D0C94B5020C94B5025D
:100060000C94B5020C94B5020C94B5020C94B50234
:100070000C94B5020C94B5020C94B5020C94B50224
:100080000C94B5020C94B5020C94B5020C94B50214
:100090000C94B5020C94B5020C94B5020C94B50204
:1000A0000C94B5020C94B5020C94B502790F9B0F19
:1000B00089109B0F8910E00F0310891058106B10E6
:1000C0003C133C1368136813AB13CB13261526158A
:1000D000D6132615831483141715261526152015F7
:1000E00090149014901490149014901490149014F0
:1000F00090149014901490149014901490149014E0
:10010000A114AE14B514BC14C614021902E3000104
:10011000E3011900020602E30001E30106000213F5
:100120000001E00104020402E001130002290001C1
:10013000E00104020402E001290035002B003161D6
:100140000255025400001E00140004001D0001535B
:100150004D001F001A0016001B00E0004C0020009C
:10016000080007000600E2002A002100150009002F
:100170001900E3004A00220017000A0005000000F1
:100180000A3029006B6700006D6F00000B306600BD
:100190006C6700006E6F00000C3023001C000B0029
:1001A000110000000D30240018000D001000E700C1
:1001B0004B0025000C000E003600E6002C00260047
:1001C00012000F0037002F612800270013003300B2
:1001D000380030414E002E002D003461025502548B
:1001E00000000000FF00FE00FD0000000000000015
:1001F00000000000000001000000F400F900F2001F
:10020000FB0000000000F500F000F100000000001D
:100210000000F600FA00F300FC00000000000000FF
:1002200000000000000000000000000000000000CE
:100230000000000000002B022B000000580000000E
:10024000000020025F005C00590000000000540024
:1002500060005D005A0062000000550061005E0011
:100260005B00630000002302570056006700850012
:1002700001000000260227020000010000002A0001
:100280000000000000000000000000000000390035
:10029000E100010000003A00AD00B00000000000E5
:1002A00000003B00BC00AC000000010000003C006E
:1002B000AF00AE000000010000003D00BB00AB003D
:1002C0000000010000003E000000000000000000EF
:1002D00000003F000100000001000000000040009D
:1002E000010000000100000000004100000050007B
:1002F000000000000000420000005100000001006A
:100300000000430000005200000001000000440013
:1003100000004F0000000100000045000000000048
:10032000000000000000A900AA00A800E5000100EC
:10033000000016034500720067006F0044006F0064
:100340007800200045005A000000160345007200A6
:1003500067006F0044006F007800200045005A00DD
:1003600000000403090409026D00040100A0FA0959
:1003700004000001030101000921110100012240D4
:10038000000705810308000A0904010001030102B6
:1003900000092111010001224D0007058203080018
:1003A0000A090402000103000000092111010001F3
:1003B0002236000705830308000A0904030001032D
:1003C0000000000921110100012239000705840302
:1003D0001000011201100100000008EDFE071301DA
:1003E000000102000105010906A101050719E02924
:1003F000E7150025019508750181020508190129F5
:10040000059505750191029501750391010507197F
:1004100000297715002501957875018102C0050135
:100420000980A101850216010026B7001A01002AE1
:10043000B700751095018100C0050C0901A1018567
:1004400003160100269C021A01002A9C02751095D1
:10045000018100C005010902A1010901A1000509EE
:1004600019012905150025019505750181029501E0
:10047000750381010501093009311581257F950238
:100480007508810609381581257F95017508810653
:10049000050C0A38021581257F950175088106C073
:1004A000C005010906A101050719E029E715002586
:1004B00001950875018102950175088101050819EA
:1004C00001290595057501910295017503910105B5
:1004D00007190029FF150026FF0095067508810001
:1004E000C00011241FBECFEFDAE0DEBFCDBF04B6DF
:1004F00003FE24C08091020290910302A0910402A5
:10050000B09105028730904BA740B04BB9F41092E0
:10051000020210920302109204021092050214BE0D
:1005200084B7877F84BF88E10FB6F894809360001A
:10053000109260000FBEE0E0FFE3099511E0A0E03B
:10054000B1E0EAEDF7E402C005900D92A433B107E3
:10055000D9F712E0A4E3B1E001C01D92A230B107C7
:10056000E1F70E94840B0C94EB230C940000109292
:10057000B9008AE08093B800089594EA9093BC0093
:100580009091BC0097FFFCCF9091B900987F983074
:1005900021F0903111F081E008958093BB0084E850
:1005A0008093BC008091BC0087FFFCCF8091B90094
:1005B000887F883111F0803471F780E0089584E9F4
:1005C0008093BC008091BC0084FDFCCF0895809393
:1005D000BB0084E88093BC008091BC0087FFFCCF07
:1005E0009091B900987F81E0983209F480E00895F5
:1005F00084E88093BC008091BC0087FFFCCF809191
:10060000BB00089580B38C7080BB81B3836F81BBC6
:10061000089580910101811115C080E40E94BD02FE
:100620008093010181110CC082E10E94E702809356
:100630000101811105C08FEF0E94E7028093010143
:100640000E94DF0284B1807F84B985B1807F85B943
:100650008AB1837F8AB98BB1837F8BB93E984698E4
:1006600008950E94D304809301010E9409030E940F
:100670000203A5E3B1E0E3E4F1E08EE08E0F119216
:100680001D928E13FCCF0C94BD040E94D304809362
:1006900001010E9409030E940203A5E3B1E0E3E423
:1006A000F1E08EE08E0F11921D928E13FCCF089513
:1006B000BF92CF92DF92EF92FF920F931F93CF934F
:1006C000DF9380910101882379F0809134018F5F5D
:1006D00080933401811108C00E94D30480930101EA
:1006E000811102C00E94650405E311E0C0E0D0E082
:1006F000DD24D39482E0C82EEE24E394F12CC7309D
:10070000D10500F580910101811164C080E40E944F
:10071000BD0280930101811112C082E10E94E702B3
:100720008093010181110BC0C7010C2E01C0880FFD
:100730000A94EAF780950E94E702809301010E94E3
:10074000DF0248C0CA30A1F028F4C83059F0C930DF
:1007500061F005C0CC3089F070F0CD3089F0209A7E
:10076000289810C0219A29980DC0229A2A980AC068
:10077000239A2B9807C0529A01C0539A5B9802C0E3
:100780003E9A469890EA9A95F1F79FB1799902C0FE
:1007900082E001C080E091709D25982B7C9902C079
:1007A00084E001C080E0892B7D9902C038E001C05F
:1007B00030E0832B7E9902C020E101C020E0822B33
:1007C0009FB19095991F9927991F9295990F907EA7
:1007D000892B0FC080910101811149C080E40E94E2
:1007E000BD0280930101882379F1B12C0E94DF02C0
:1007F0008B2DF8019081981719F08083C092000129
:100800000E94090321960F5F1F4FCE30D10509F0DA
:1008100076CF80910001882361F18150809300019F
:10082000882339F08FE99FE00197F1F700C00000BD
:1008300020C0A3E4B1E0E5E3F1E0CF01825F919154
:100840009D938E13FCCF15C083E10E94E702809335
:1008500001018111CACF81E40E94BD028093010190
:100860008111C3CF0E94F802B82EB094BFCF80E0B0
:10087000C0CF0E94630481E0DF91CF911F910F915F
:10088000FF90EF90DF90CF90BF900895E82FF0E0B9
:10089000ED5BFE4F8081089508950F931F93CF93D2
:1008A000DF93C3E4D1E010E00C2F025F899190E068
:1008B0000E947F1C180F0C13F9CF812FDF91CF916D
:1008C0001F910F9108950C94560556985E9825989F
:1008D0002D9826982E9827982F988FEF90E0909338
:1008E00089008093880090938B0080938A00909376
:1008F0008D0080938C00259A2D9A2FEF80E792E04F
:10090000215080409040E1F700C00000269A2E9AC6
:100910002FEF80E792E0215080409040E1F700C047
:100920000000279A2F9A2FEF80E792E02150804015
:100930009040E1F700C0000025982D982FEF80E748
:1009400092E0215080409040E1F700C000002698DE
:100950002E982FEF80E792E0215080409040E1F701
:1009600000C0000027982F9856985E9825982D98DB
:1009700026982E9827982F98089589EA80938000CA
:1009800089E08093810024982C983F988AB18F74D5
:100990008AB96E98479A8BB1806B8BB9769A0E9410
:1009A00065040C94550580E280930101809151010A
:1009B00081110EC00E94B70281E0809351012FEF98
:1009C00083ED90E3215080409040E1F700C00000AB
:1009D00080E40E94BD028093010181112EC00E941B
:1009E000E70280930101811128C00E94E7028093F1
:1009F0000101811122C08FE30E94E702809301016F
:100A000081111BC00E94DF0280E40E94BD0280931E
:100A10000101811112C08CE00E94E7028093010164
:100A200081110BC00E94E70280930101811105C072
:100A30008FE30E94E702809301010E94DF02809110
:100A400001010895FC016B3079F018F46A3031F03F
:100A50001DC06C3079F06D3099F018C08281811121
:100A600018C08CE291E008958281811115C08EE159
:100A700091E008958281811112C084E191E008958E
:100A8000828181110FC08AE091E0089580E090E0BA
:100A900008958FE291E0089581E291E0089589E15F
:100AA00091E008958FE091E008950895CF936091CB
:100AB000BF017091C0018091C1019091C2010E945B
:100AC0008B1CC82F56985E9825982D9826982E989E
:100AD00027982F988FE090E090938900809388006A
:100AE00090938B0080938A0090938D0080938C006C
:100AF000CC2329F0C13029F4C093520102C01092D6
:100B0000520180915201813011F4279A2F9A0E944C
:100B1000C210867011F0259A2D9AC23041F40E94BD
:100B2000081B811104C027982F98269A2E9AE091CD
:100B30000E01F0910F018081982F927259F08D7DF6
:100B400049F48FEF90E09093890080938800259A74
:100B50002D9A08C00E94351C827221F00E94DB1A77
:100B6000882379F3CF91089581E0089581E0089575
:100B70000C94B6050895282F882339F090E02A3088
:100B800010F44D9608950697089587E290E0089531
:100B9000AF92BF92DF92EF92FF920F931F93CF938A
:100BA000DF938C01FC01C081D181CE010E94841AA7
:100BB000BE010E943809EC01B8010E94B8058823E3
:100BC00009F4C9C1F8018281882309F4BEC080916B
:100BD0005F0181111FC0C431F0E7DF0709F0B5C123
:100BE0000E94BA0581E080935F010E944B1D9093A3
:100BF0005E0180935D01109256011092580110928F
:100C0000570110925A011092590110925C011092F2
:100C10005B01A1C180915D0190915E010E94571D11
:100C2000883C910570F480915601E82FF0E0EE0FBA
:100C3000FF1FE95AFE4FD183C0838F5F8093560117
:100C40008AC1C13020E8D20708F451C0F80182817E
:100C5000882309F47EC05E01E894B7F880915501BD
:100C6000813079F050F08230C1F482EE0E94DE11C2
:100C700087E50E94DE1187E50EC082EE0E94DE113C
:100C80000CC080EE0E94DE1181EE0E94DE1188E130
:100C90000E94DE1188E10E94A6128CE0E82EF12C61
:100CA000C5010E2C02C0969587950A94E2F78F70C5
:100CB0000E94BB05D82E0E94DE118D2D0E94A61227
:100CC000F4E0EF1AF1082CEFE2162FEFF20641F7ED
:100CD00080915501813029F010F0823041F482EE8C
:100CE00004C080EE0E94A61281EE0E94A612C431BA
:100CF00080E7D80768F4C23090E7D90708F046C00B
:100D0000C115E0E7DE0771F0C130D047A1F10CC199
:100D1000C33320E7D20709F4D8C0C433D04709F45D
:100D2000EBC002C1F8018281882309F402C10E944C
:100D30008B15FFEF24E38CE0F15020408040E1F779
:100D400000C000000E94A61D06C1C13080E8D8077F
:100D500070F2C43120E7D20708F0B3C0C23080E798
:100D6000D807A0F4C11590E7D90709F4E2C0C13053
:100D7000D04709F0D9C0F8018281882309F4D9C08D
:100D80008091E10181608093E101E5C0F8018281F9
:100D9000882309F4CEC00E94001E811102C00E9467
:100DA000E61D0E94131E90E09093F4018093F301DE
:100DB000C230F0E7DF0721F48091F30181607AC04F
:100DC000C33020E7D20721F48091F301826072C022
:100DD000C43080E7D80721F48091F30184606AC0B1
:100DE000C53090E7D90719F48091F30127C0C630C8
:100DF000E0E7DE0721F48091F30180615BC0C7303A
:100E0000F0E7DF0721F48091F301806253C0C8301E
:100E100020E7D20721F48091F30180644BC0C930F0
:100E200080E7D80721F48091F301806843C0CA307D
:100E300090E7D90729F48091F301846088603AC073
:100E4000CB30E0E7DE0721F48091F3018E7F32C0E2
:100E5000CC30F0E7DF0721F48091F3018D7F2AC0C9
:100E6000CD3020E7D20721F48091F3018B7F22C09F
:100E7000CE3080E7D80719F48091F3011AC0809131
:100E8000F301CF3090E7D90711F48F7E13C0C03142
:100E9000E0E7DE0711F48F7D0DC0C131F0E7DF0719
:100EA00011F48F7B07C0C231D04711F48F7702C095
:100EB0008B7F877F8093F3018091F3010E94171E3F
:100EC0004AC0C333F0E7DF07A1F4F8018281882329
:100ED00021F01092530182E016C0809153018111DC
:100EE00006C086E20E94DE1186E20E94A61282E01F
:100EF00018C0C433D047C1F4F8018281882331F08F
:100F00001092540180E20E94F51225C08091540194
:100F1000811106C087E20E94DE1187E20E94A612BC
:100F200080E20E94FC1217C081E0809353018093FD
:100F30005401C801DF91CF911F910F91FF90EF9065
:100F4000DF90BF90AF900C94B405C130F0E8DF079C
:100F500008F081CECCCE80E0DF91CF911F910F9130
:100F6000FF90EF90DF90BF90AF90089526E0729FC2
:100F7000F001112444E5849FE00DF11D1124E60FDA
:100F8000F11DEE0FFF1FE65CFE4F859194910E94CC
:100F90004A09811560E49607B0F5811570E397075B
:100FA00008F0DEC0803E9105D8F4803C910508F041
:100FB0006CC0883A910578F4853A910508F06BC0C9
:100FC0008130910509F452C108F40FC184309105B4
:100FD00008F04CC10AC18B3B910508F467C005C1FC
:100FE0008F3F910509F048F4803F910508F0ADC0AE
:100FF000883E910508F43AC1F8C0811520E29207B5
:1010000008F0A5C00895811543E5940790F4811573
:1010100062E5960708F0C8C0811571E5970708F0EA
:10102000BEC0811520E5920708F09DC09F70906AB0
:101030000895811545E59407D8F4811564E5960770
:1010400008F0C8C0482F4695469570E2479FA0011A
:1010500011248370992721E030E0B90102C0660FA6
:10106000771F8A95E2F7CB01842B952B9A68089518
:10107000811576E5970708F4B2C09C01305621151A
:10108000304108F0B2C09F70AEC0FC01EE0FFF1FF0
:10109000E654F04062C0853A910509F4A9C0863A49
:1010A000910509F0A8C082E890E40895883A910576
:1010B00009F4A4C0893A910509F4A3C08A3A9105BC
:1010C00009F4A2C08B3A910509F4A1C08C3A9105AC
:1010D00009F4A0C08D3A910509F49FC0803B9105A9
:1010E00009F49EC08E3A910509F49DC08F3A91058E
:1010F00009F49CC0813B910509F49BC0823B91059A
:1011000009F49AC0833B910509F499C0843B910589
:1011100009F498C0853B910509F497C0863B910579
:1011200009F496C0873B910509F495C0883B910569
:1011300009F494C0893B910509F493C08A3B910559
:1011400009F492C080E094E4089590650895FC014C
:10115000FF70EE0FFF1FE65CFE4F8591949108959E
:101160009927906C0895482F437021E030E002C029
:10117000220F331F4A95E2F73C68AC0164E05695B4
:1011800047956A95E1F74370342B8F708695869565
:1011900060E2869FC0011124822B932B0895982F23
:1011A0008827816F906A0895482F4695469570E28A
:1011B000479FA00111248370992721E030E0B901F5
:1011C00002C0660F771F8A95E2F7CB01842B952B1F
:1011D0009C680895982F8827846F906A08958F716E
:1011E0009927982F88279062089580E090E00895CD
:1011F00081E890E4089583E890E4089582EE94E411
:10120000089589EE94E408958AEE94E4089585EBB8
:1012100094E4089586EB94E4089587EB94E40895AC
:101220008CEC94E408958DEC94E4089583E895E4BF
:1012300008958AE895E4089582E995E4089584E99B
:1012400095E4089581E296E4089583E296E4089592
:1012500084E296E4089585E296E4089586E296E4B1
:10126000089587E296E408958AE296E40895089541
:1012700096E0799FF001112494E5899FE00DF11D1E
:101280001124E60FF11DEE0FFF1FE65CFE4F859166
:10129000949108958238910549F1B0F48133910514
:1012A00009F458C048F48932910509F44EC08A32D5
:1012B000910509F454C008958533910509F440C09F
:1012C0008933910599F00895833E910529F138F409
:1012D000803E910591F0823E9105A1F00895863EF1
:1012E0009105F9F0873E910531F108952091F301C0
:1012F00020FD3AC021FD38C008958091F30180FDA2
:1013000035C032C08091F30182FF32C08091F30179
:1013100084FD30C083EE39C08091F30182FD28C086
:10132000F5CF8091F30183FF27C08091F30184FD05
:1013300021C087EE2AC08091F30183FD1DC0F5CF47
:101340008091F30185FD1AC01BC08091F30185FDDA
:1013500017C014C08091F30186FD14C015C08091A0
:10136000F30186FD11C00EC080EE0FC089E30DC0F1
:1013700082EE0BC080E009C086EE07C089E205C09E
:1013800085E303C08AE201C081E390E008950895F7
:101390000C94C709809170010895CF93DF9300D01A
:1013A0001F92CDB7DEB79C018091F901843019F509
:1013B00093E099833B832A839093E9008FEF909188
:1013C000E800815095FD06C095ED9A95F1F7000073
:1013D0008111F5CF8091E80085FF0DC040E050E01D
:1013E00063E070E0CE0101960E942A0C8091E80033
:1013F0008E778093E8000F900F900F90DF91CF9140
:101400000895CF93DF9300D01F92CDB7DEB7209120
:10141000F901243021F522E029839B838A8383E02C
:101420008093E9008FEF9091E800815095FD06C010
:1014300095ED9A95F1F700008111F5CF8091E800C4
:1014400085FF0DC040E050E063E070E0CE01019602
:101450000E942A0C8091E8008E778093E8000F901C
:101460000F900F90DF91CF9108952091F9012430D2
:10147000F1F422E02093E9002FEF3091E8002150B1
:1014800035FD06C035ED3A95F1F700002111F5CF95
:101490002091E80025FF0BC040E050E065E070E0DF
:1014A0000E942A0C8091E8008E778093E8000895CE
:1014B000CF93DF93EC019091F901943009F046C08D
:1014C00080910C018823D9F080910D018823B9F017
:1014D0009093E9008FEF9091E800815095FD06C050
:1014E00095E19A95F1F700008111F5CF8091E80020
:1014F00085FF2CC040E050E060E170E017C081E063
:101500008093E9008FEF9091E800815095FD06C02F
:1015100095ED9A95F1F700008111F5CF8091E800E3
:1015200085FF14C040E050E068E070E0CE010E940A
:101530002A0C8091E8008E778093E80080E1FE011C
:10154000A0E6B1E001900D928A95E1F7DF91CF918D
:1015500008958091F801811109C00E94BF0D0E9479
:101560001C0E8091E20084608093E2000895109246
:10157000F8010895089508950C94131D42E061EC5C
:1015800081E00E94390D42E061EC82E00E94390D59
:1015900042E061EC83E00E94390D42E161EC84E0BD
:1015A0000C94390D8091FB01833009F455C030F45F
:1015B000813071F0823009F48EC008958A3009F4C8
:1015C0007AC08B3009F460C0893009F09CC020C01B
:1015D0008091FA01813A09F096C08091E800877FF6
:1015E0008093E8008091FE019091FF01892B21F406
:1015F00060E180E691E003C060E080E090E070E0B0
:101600000E94750C8091E8008B778093E800089524
:101610008091FA01813209F076C08091FE019091AB
:10162000FF01009719F0039709F06DC08091E80061
:10163000877F8093E8008091E80082FD05C080915B
:10164000F9018111F8CF5FC08091F10080937001A2
:101650008091E8008B7753C08091FA01813A09F0BC
:1016600052C08091FE019091FF01892B09F04BC07F
:101670008091E800877F8093E8008091E80080FFF8
:10168000FCCF80910C0136C08091FA018132D9F5EE
:101690008091FE019091FF01892BA9F58091E800CE
:1016A000877F8093E8000E946E0D8091FC018093FB
:1016B0000C010C948B158091FA01813221F58091F7
:1016C000E800877F8093E8000E946E0D8091FD0105
:1016D0008093710108958091FA01813AA1F480917B
:1016E000E800877F8093E8008091E80080FFFCCFCE
:1016F000809171018093F1008091E8008E77809352
:10170000E8000C946E0D089584B7877F84BF88E14C
:101710000FB6F89480936000109260000FBE80E8CE
:1017200080936100109261000E9411110E94BF0D10
:101730000E941C0E8091E20084608093E200789405
:101740000E94A2100E94131182E091E00E94BD103D
:101750008091F901853069F40E94DB1C8091F701CA
:101760008823B1F30E94051D882391F30E94140C75
:10177000EFCF0E941911ECCF292F332723303105E9
:10178000C9F064F42130310581F02230310509F0CF
:1017900043C08DE690E026E633E042C021323105B9
:1017A000F1F02232310541F137C082E190E023EDC2
:1017B00033E036C099278130910541F082309105A0
:1017C00041F0892B49F5E2E6F3E005C0EAE4F3E0F5
:1017D00002C0E2E3F3E0849190E09F0121C0643015
:1017E000D8F4E62FF0E0EE0FFF1FEF5DFE4F2081F3
:1017F000318189E090E014C0643070F470E0FB0146
:10180000EE0FFF1FE75EFE4F20813181FB01EB5E93
:10181000FE4F808190E004C080E090E020E030E066
:10182000FA0131832083089580E189BD82E189BD79
:1018300009B400FEFDCF8091D8008F7D8093D80041
:101840008091E00082608093E0008091E00081FD63
:10185000FCCF0895CF92DF92EF92FF920F931F93E8
:10186000CF93DF93EC018B016A010E948D0D8111F2
:1018700033C0C114D10439F0F60180819181081B75
:10188000190BC80FD91FE12CF12C0115110519F105
:101890008091E80085FD16C08091E8008E778093E6
:1018A000E800C114D10449F0F60180819181E80E6D
:1018B000F91EF182E08285E00FC00E948D0D882321
:1018C00021F30AC089918093F10001501109FFEFC3
:1018D000EF1AFF0ADACF80E0DF91CF911F910F91CD
:1018E000FF90EF90DF90CF9008952091000230910B
:1018F00001022617370748F06115710539F4209168
:10190000E8002E772093E80001C0B90140E061159E
:101910007105A9F12091F901222309F443C0253072
:1019200009F442C02091E80023FD40C02091E80066
:1019300022FD32C02091E80020FFE9CF4091F30062
:101940002091F20030E0342BFC01CF0161157105CC
:1019500059F02830310540F481918093F1006150B5
:1019600071092F5F3F4FF1CF41E02830310509F079
:1019700040E02091E8002E772093E800C8CF411185
:10198000C9CF0AC08091F901882361F0853061F0E8
:101990008091E80083FD0AC08091E80082FFF2CFC9
:1019A00080E0089582E0089583E0089581E008953D
:1019B00020910002309101022617370748F0611587
:1019C000710539F42091E8002E772093E80001C0DA
:1019D000B901FC0120E06115710591F18091F901D7
:1019E000882309F440C0853009F43FC08091E800A5
:1019F00083FD3DC08091E80082FD2FC08091E8000A
:101A000080FFE9CF2091F3008091F20090E0922BCB
:101A10006115710559F08830910540F424912093A7
:101A2000F1003196615071090196F2CF21E00897DB
:101A300009F020E08091E8008E778093E800CBCF1A
:101A40002111CCCF0AC08091F901882361F0853043
:101A500061F08091E80083FD0AC08091E80082FF78
:101A6000F2CF80E0089582E0089583E0089581E058
:101A70000895982F973058F59093E900981739F00A
:101A80007091EC002091ED005091F00003C0242FE4
:101A9000762F50E021FF19C03091EB003E7F30934C
:101AA000EB003091ED003D7F3093ED003091EB0085
:101AB00031603093EB007093EC002093ED00509375
:101AC000F0002091EE0027FF07C09F5FD3CF8F70FB
:101AD0008093E90081E0089580E008958091FA0103
:101AE00087FF11C08091E80082FD05C08091F90157
:101AF0008111F8CF11C08091E8008B770BC08091E5
:101B0000F901882349F08091E80080FFF8CF8091A7
:101B1000E8008E778093E80008952091E4003091EA
:101B2000E50095E64091EC00842F817040FF22C0D3
:101B30008091E80080FD1CC08091F901882391F01C
:101B4000853091F08091EB0085FD10C04091E4005C
:101B50005091E5004217530729F39A01915011F76C
:101B600084E0089582E0089583E0089581E0089577
:101B700080E008954091E80042FFDECF08950E9482
:101B80002D0E0E94350EE0EEF0E0808181608083B2
:101B9000E8EDF0E080818F77808319BCA7EDB0E09D
:101BA0008C918E7F8C9380818F7E80831092F80140
:101BB00008950F931F93CF93DF930E942D0E0E94E1
:101BC000350EC8EDD0E088818F7788838881806862
:101BD000888388818F7D888319BC1092F9011092C7
:101BE000F5011092F7011092F60100EE10E0F801F5
:101BF00080818B7F808388818160888342E060E080
:101C000080E00E94390DE1EEF0E080818E7F8083DC
:101C1000E2EEF0E080818160808380818860808353
:101C2000F80180818E7F8083888180618883DF9145
:101C3000CF911F910F910895E8EDF0E080818F7EA4
:101C40008083E7EDF0E080818160808384E082BF63
:101C500081E08093F8010C94D90DE8EDF0E08081EB
:101C60008E7F80831092E20008951092DA00109225
:101C7000E10008951F920F920FB60F9211242F9337
:101C80003F934F935F936F937F938F939F93AF9304
:101C9000BF93EF93FF938091E10082FF0BC080918F
:101CA000E20082FF07C08091E1008B7F8093E1001A
:101CB0000E94A1108091DA0080FF1FC08091D8009F
:101CC00080FF1BC08091DA008E7F8093DA008091C4
:101CD000D90080FF0DC080E189BD82E189BD09B4D2
:101CE00000FEFDCF81E08093F9010E94A90A05C0A2
:101CF00019BC1092F9010E94B70A8091E10080FF9F
:101D000019C08091E20080FF15C08091E2008E7FB3
:101D10008093E2008091E20080618093E2008091F4
:101D2000D80080628093D80019BC85E08093F901C7
:101D30000E94BB0A8091E10084FF30C08091E200E4
:101D400084FF2CC080E189BD82E189BD09B400FE19
:101D5000FDCF8091D8008F7D8093D8008091E100E5
:101D60008F7E8093E1008091E2008F7E8093E2007D
:101D70008091E20081608093E2008091F5018823E8
:101D800011F084E007C08091E30087FD02C081E08C
:101D900001C083E08093F9010E94BC0A8091E100B8
:101DA00083FF29C08091E20083FF25C08091E1007C
:101DB000877F8093E10082E08093F9011092F50122
:101DC0008091E1008E7F8093E1008091E2008E7F20
:101DD0008093E2008091E20080618093E20042E023
:101DE00060E080E00E94390D8091F000886080936F
:101DF000F0000E94BA0AFF91EF91BF91AF919F91BD
:101E00008F917F916F915F914F913F912F910F90A3
:101E10000FBE0F901F9018951F920F920FB60F9242
:101E200011242F933F934F935F936F937F938F93DF
:101E30009F93AF93BF93CF93DF93EF93FF93C091A3
:101E4000E900CF708091EC00D82FD17080FDD0E8F0
:101E50001092E9008091F000877F8093F0007894E1
:101E60000E94500F1092E9008091F00088608093EA
:101E7000F000CD2BCF70C093E900FF91EF91DF917F
:101E8000CF91BF91AF919F918F917F916F915F9112
:101E90004F913F912F910F900FBE0F901F9018956B
:101EA0001F93CF93DF93CDB7DEB7AA970FB6F89401
:101EB000DEBF0FBECDBFEAEFF1E088E08E0F90915C
:101EC000F10091938E13FBCF0E94D20A8091E8001B
:101ED00083FF1FC18091FA019091FB01492F50E0CF
:101EE0004A30510508F015C1FA01EA5AFF4F0C9427
:101EF0009B23803881F0823809F00BC18091FE016C
:101F00008F708093E9008091EB0085FB882780F932
:101F10001092E90006C08091F6019091F7019111AD
:101F200082609091E800977F9093E8008093F100A1
:101F30001092F100C8C0282F2D7F09F0EAC0882335
:101F400019F0823061F0E5C08091FC01813009F028
:101F5000E0C0933009F080E08093F7012BC08091BE
:101F6000FC01811127C08091FE018F7009F4D1C05E
:101F70008093E9002091EB0020FF1CC0933021F4F6
:101F80008091EB00806214C09091EB00906190937F
:101F9000EB0021E030E0A90102C0440F551F8A95F3
:101FA000E2F74093EA001092EA008091EB0088602B
:101FB0008093EB001092E9008091E800877F86C053
:101FC0008111A7C01091FC011F778091E3008078F8
:101FD000812B8093E3008091E800877F8093E80065
:101FE0000E946E0D8091E80080FFFCCF8091E3009D
:101FF00080688093E300111102C082E001C083E099
:102000008093F90186C08058823008F082C08091A8
:10201000FC019091FD018C3D53E0950779F583E03B
:102020008A838AE289834FB7F894DE01139620E011
:102030003EE051E2E32FF0E050935700E49120FF9F
:1020400003C0E295EF703F5FEF708E2F90E0EA30B3
:1020500010F0C79601C0C0968D939D932F5F2431D9
:1020600049F74FBF8091E800877F8093E8006AE2DC
:1020700070E0CE0101960E94750C14C0AE014F5F56
:102080005F4F6091FE010E94BC0BBC01892B09F4DB
:1020900040C09091E800977F9093E80089819A81F1
:1020A0000E94D80C8091E8008B778093E80031C0C3
:1020B000803879F58091E800877F8093E8008091EF
:1020C000F5018093F1008091E8008E778093E8001D
:1020D0000E946E0D1EC081111CC09091FC019230B7
:1020E000C0F48091E800877F8093E8009093F50129
:1020F0000E946E0D8091F501811106C08091E30070
:1021000087FD02C081E001C084E08093F9010E9454
:10211000BE0A8091E80083FF0AC08091E800877FB3
:102120008093E8008091EB0080628093EB00AA9698
:102130000FB6F894DEBF0FBECDBFDF91CF911F91D8
:1021400008950895CF938091F9018823A1F0C0915B
:10215000E900CF709091EC00892F817090FD80E8AC
:10216000C82B1092E9008091E80083FD0E94500F77
:10217000CF70C093E900CF91089590937701809339
:1021800076010895E0917601F0917701309721F082
:102190000190F081E02D099480E00895E0917601AE
:1021A000F0917701309721F00280F381E02D0994BE
:1021B0000895E0917601F0917701309721F0048045
:1021C000F581E02D099408952091740130917501F5
:1021D0008217930771F09093750180937401E091D9
:1021E0007601F0917701309721F00680F781E02D9C
:1021F0000994089520917201309173018217930719
:1022000071F09093730180937201E0917601F091E7
:102210007701309721F00084F185E02D099408952D
:1022200008950C9410110E94421D0E9431030C94D9
:10223000C81D9F92AF92BF92CF92DF92EF92FF9212
:102240000F931F93CF93DF9300D000D000D0CDB772
:10225000DEB70E9458030DE010E0AA24A394B12C2D
:10226000902E802F0E944604980127583E4F690106
:10227000F901F080F826A1F40150110988F78FEFD9
:1022800089838A831B820E944B1D8160782F9D83E6
:102290008C8349815A816B818D810E94B0112FC03E
:1022A0009091E10191FF04C08E830E944C048E81C5
:1022B00025E030E0A501022E01C0440F0A94EAF7A0
:1022C000E42E4F21C1F029839A828E2191E009F4F6
:1022D00090E09B830E944B1D8160782F9D838C83AF
:1022E00049815A816B818D810E94B011F6018081F4
:1022F000E826E08204C021503109E0F6BDCF0E94FB
:10230000961F109178010E94C2101817B9F00E9410
:10231000C2108093780126960FB6F894DEBF0FBEE8
:10232000CDBFDF91CF911F910F91FF90EF90DF9084
:10233000CF90BF90AF909F900C94C80926960FB68F
:10234000F894DEBF0FBECDBFDF91CF911F910F91EB
:10235000FF90EF90DF90CF90BF90AF909F90089547
:10236000CF93DF93CDB7DEB72B970FB6F894DEBFD0
:102370000FBECDBF4F83588769877A878B87DE0171
:10238000119686E0FD0111928A95E9F785E0FE013C
:10239000379601900D928A95E1F749815A816B81B8
:1023A0007C818D819E810E9429182B960FB6F8940E
:1023B000DEBF0FBECDBFDF91CF910895CF938823AD
:1023C00009F4C2C0C82F823859F40E94C21081FD9E
:1023D000BBC089E30E946C1B0E94491C89E30CC0AE
:1023E000833879F40E94C21080FDAEC083E50E945C
:1023F0006C1B0E94491C83E50E94AE1BCF910C947C
:10240000491C843859F40E94C21082FD9DC087E4A3
:102410000E946C1B0E94491C87E4EECF8CEF8C0F4E
:10242000813A48F48C2F0E94CB2181118DC08C2FD2
:102430000E946C1BE3CF80E28C0F883048F4C77099
:1024400081E001C0880FCA95EAF70E94F51BD6CF3C
:102450008BE58C0F833078F4C53A29F0C63A31F019
:1024600083E890E005C081E890E002C082E890E057
:10247000CF910C94E41088E58C0F833108F064C090
:10248000C83A39F1C93A41F1CA3A49F1CB3A51F166
:10249000CC3A59F1CD3A61F1C03B69F1CE3A71F1D4
:1024A000CF3A79F1C13B81F1C23B89F1C33B91F154
:1024B000C43B99F1C53BA1F1C63BA9F1C73BB1F1C2
:1024C000C83BB9F1C93BC1F1CA3BC9F180E090E01A
:1024D00038C082EE90E035C089EE90E032C08AEEDE
:1024E00090E02FC085EB90E02CC086EB90E029C0F7
:1024F00087EB90E026C08CEC90E023C08DEC90E060
:1025000020C083E891E01DC08AE891E01AC082E90A
:1025100091E017C084E991E014C081E292E011C01B
:1025200083E292E00EC084E292E00BC085E292E08A
:1025300008C086E292E005C087E292E002C08AE22B
:1025400092E0CF910C94FA10CF910895882309F46A
:102550004BC0823859F40E94C21081FF45C089E304
:102560000E946C1B0E94491C89E30CC0833871F4E3
:102570000E94C21080FF38C083E50E946C1B0E943D
:10258000491C83E50E94AE1B0C94491C843859F405
:102590000E94C21082FF28C087E40E946C1B0E9428
:1025A000491C87E4EFCF9CEF980F913A58F390E2E3
:1025B000980F983050F4877091E001C0990F8A9578
:1025C000EAF7892F0E94FB1BDFCF9BE5980F933022
:1025D00020F480E090E00C94E410885A833120F4D9
:1025E00080E090E00C94FA100895882321F00E9476
:1025F000F51B0C94491C0895882321F00E94FB1BB5
:102600000C94491C08958F929F92AF92BF92DF92D3
:10261000EF92FF920F931F93CF93DF937C01D62FFE
:10262000C72FFC010281158112951F700E94081BA3
:10263000882319F082E00E944A1B01110E94121C9B
:102640000E94651B882379F0002369F080E28D0FDA
:10265000883048F082E00E944A1B0E94651B91E08E
:10266000D82ED92601C0D12CEC2FE295EF70F0E0E6
:10267000E05AFF4F0C949B238C2F807FCF708823D0
:1026800011F0C295C07F002389F0CC2309F4C4C1A6
:1026900080E28D0F883020F48C2F0E94F51B03C040
:1026A0008C2F0E94051C0E94491CB6C18D2F0E94D0
:1026B000A612CC2309F4CAC1D05E8C2FD83018F4EE
:1026C0000E94FB1B02C00E940B1C0E94491CBEC141
:1026D0008C2F807FCF70803211F0C295C07FDD23B8
:1026E00019F0D13029F12DC0002381F0112369F1B7
:1026F000113021F48C2F0E94251CA8C1123029F51D
:102700000E942E1C8C2F0E94D51A1FC0112369F025
:10271000113041F40E94F21B8C2309F497C10E94EE
:10272000D81A03C0123009F491C10E942E1C11C0A6
:10273000002321F0123008F089C107C0111186C1B1
:1027400008C0002321F0111167C18C2FF1C01111B5
:102750006AC18C2FF3C08C2F86958695837090E08C
:10276000009719F0019761F071C1002321F08D2FBE
:102770009C2F937002C080E090E00E94E41066C13C
:10278000002321F08D2F9C2F937002C080E090E0F9
:102790000E94FA105BC18D2F002319F00E949E1E2B
:1027A00002C00E94061F0E948B1F50C18C2F837095
:1027B00009F050C001114AC18D2F8295869587700E
:1027C000880F880F9D2F9F70892E912CA12CB12CE2
:1027D000082E04C0880C991CAA1CBB1C0A94D2F7B2
:1027E000D4FF14C00FE010E020E030E0B901A801F0
:1027F00004C0440F551F661F771F8A95D2F7CB017F
:10280000BA01609570958095909503C060E070E086
:10281000CB01C695C695C370D0E0C230D10561F03A
:10282000C330D10581F0682979298A299B2921970C
:1028300071F00E9471190AC1682979298A299B2996
:102840000E948D1903C10E947119C501B4010E9433
:102850005519FCC0002319F08C2F817001C086959A
:10286000882309F4F3C08D2F829586958770880F91
:10287000880F9D2F9F70892E912CA12CB12C082E92
:1028800004C0880C991CAA1CBB1C0A94D2F7D4FF64
:1028900014C00FE010E020E030E0B901A80104C04E
:1028A000440F551F661F771F8A95D2F7CB01BA01D7
:1028B000609570958095909503C060E070E0CB01C5
:1028C000C695C695C3704C2F50E04230510569F053
:1028D0004330510589F0682979298A299B2941309B
:1028E000510571F00E944B1AB1C0682979298A29D3
:1028F0009B290E94671AAAC00E944B1AC501B40105
:102900000E942F1AA3C08D2F90E0FC01E05EF10918
:10291000E531F10508F07BC0E059FF4F0C949B2393
:10292000DF708C2F8F71002331F00E94C8198D2F1A
:102930000E94F5128BC00E94E9198D2F0E94FC1293
:1029400085C0002339F0111181C08C2F8F710E9436
:102950000E1A7CC0123008F079C0F7CF002339F08E
:102960008C2F8F710E94C81971C00023C9F38C2F5E
:102970008F710E94E9196AC0002329F08C2F8F7192
:102980000E94B31963C00E94A91960C00023B9F066
:102990000E94D21A0E94FB1B0E94041B843029F45F
:1029A0000E94431B8C2F8F7162C0123008F06CC0E4
:1029B000CF718C2F0E94C81963E08C2F0DC00E942C
:1029C000D21A0E94F51B1230A0F00E94431B0E94F5
:1029D000D81A64E08C2F8F71DF91CF911F910F91E6
:1029E000FF90EF90DF90BF90AF909F908F900C94EE
:1029F000331B81E0DF91CF911F910F91FF90EF90FA
:102A0000DF90BF90AF909F908F900C944A1B002353
:102A100039F0112309F4A4CF8D2F0E94DE1116C0C6
:102A2000112309F4A4CF8D2F0E94A6120FC04C2FA2
:102A30004F706D2FC7010E9422050E94CD1806C05D
:102A40004C2F4F706D2FC7010E943709DD20E1F038
:102A50000E94041B80FD18C0F70112820E94FE1A1A
:102A60000E94C819C7010E9450150E94FE1ADF91EA
:102A7000CF911F910F91FF90EF90DF90BF90AF909B
:102A80009F908F900C94E919DF91CF911F910F9136
:102A9000FF90EF90DF90BF90AF909F908F90089540
:102AA0000F931F93CF93DF93EC01888199812B8142
:102AB0003C81232BB9F09F3F11F48F3F99F0CE0159
:102AC0000E94C805882371F0688179818A810E94FB
:102AD000CE1A8C010E94831A0E944A19B801CE01B5
:102AE0000E940313DF91CF911F910F9108950E94CF
:102AF000121C0E94221C0E94E41B0E94491C0E947E
:102B00003C200E948B1F80E090E00E94E41080E057
:102B100090E00C94FA100E94021C0C9477150E940D
:102B2000C31A292F22952F7030E02C3031054CF438
:102B30002A3031056CF42250310922303105A8F4D5
:102B400007C02C30310569F02F30310551F00DC030
:102B5000803F69F018F4803E40F409C0843F29F4B6
:102B600006C093FB882780F9089580E0089581E0EE
:102B70000895CF93DF9300D000D01F92CDB7DEB77A
:102B80000F900F900F900F900F90DF91CF910895BD
:102B9000CF93DF9300D000D000D0CDB7DEB726961C
:102BA0000FB6F894DEBF0FBECDBFDF91CF91089571
:102BB0001F93CF93DF93C091870116E08091880126
:102BC000C81799F0D0E01C9FF0011D9FF00D112453
:102BD000E757FE4F408151816281738184819581E5
:102BE0000E94C8152196C770E9CFDF91CF911F9140
:102BF00008954091B9015091BA016091BB01709163
:102C0000BC018091BD019091BE010C94C8158091CA
:102C1000BE0182958F7009F054C08091BB0188235A
:102C200009F44FC080918701A09188016091B9019A
:102C30007091BA014091BC015091BD01B6E08A1774
:102C400009F43FC090E041155105C1F17F3F11F4F7
:102C50006F3FA1F1B89FF001B99FF00D1124E75724
:102C6000FE4F218172132AC02081621327C0228166
:102C7000211124C0238134812417350710F42150F9
:102C80003109241B350B283C3105C0F42091BE01CD
:102C90002F7020612093BE0126E0289FF001299F1C
:102CA000F00D1124E257FE4F80818F708061808388
:102CB00089EB91E00E9450150C94D815019687700D
:102CC000BECF0895CF92DF92EF92FF920F931F93A2
:102CD000CF93DF93CDB7DEB762970FB6F894DEBF20
:102CE0000FBECDBF8C0185E0F801DE011D9601907D
:102CF0000D928A95E1F7D8014C9111965C9111974C
:102D000012966C9112971396CD90DC901497309197
:102D1000B9017091BA018091BC019091BD010097F9
:102D200009F46BC17F3F19F43F3F09F466C1E0909D
:102D3000BB01EE2009F4C0C02091BE01C816D9061F
:102D400028F0F601E81BF90BCF0104C0809590959F
:102D50008C0D9D1DFF24F394883C910578F0F12C97
:102D6000207F09F0C6C07C2DD98AC88A89890E9433
:102D7000B91589EB91E00E945015B1C0822F807F78
:102D800009F046C0751314C0341312C0611110C08D
:102D90002F7020612093BE010E94F91589EB91E00C
:102DA0000E9450158091BE01D80115968C932EC0BB
:102DB000CD2819F15F3F11F44F3FF9F0F62E611164
:102DC0001CC0809187012091880136E0821709F4A8
:102DD0005AC090E0389FF001399FF00D1124E75759
:102DE000FE4F7181571306C07081471303C0728173
:102DF000711103C001968770E9CFF62E662309F49E
:102E000018C18091BE0181608093BE01F12C11C177
:102E1000751308C0341306C0611104C08091BE014F
:102E2000D801C3C04D875E878D859E856A8B0E94C1
:102E30008F156A898823E1F16623D1F12091BE01C3
:102E4000822F82958F7090E0029774F08091B90183
:102E50009091BA0198878F831986DB86CA862C8762
:102E6000CE0107960E94501586E0F801A9EBB1E06B
:102E700001900D928A95E1F70E9407160E94F915BC
:102E8000FF24F394D6C04D875E878D859E850E9472
:102E9000C31A292F22952F7030E0223031050CF013
:102EA000BCC09F7009F0B6C0805E883008F4C1C015
:102EB000C8010E945015E4CFC816D90608F453C0C3
:102EC000F601E81BF90BCF01883C910508F450C0CE
:102ED000F12C7C2DD98AC88A89890E94B915E9EB21
:102EE000F1E086E0DF011D928A95E9F70E94F9156D
:102EF000A0C0751314C0341312C0611110C08091AA
:102F0000BE01F8018583C8010E94501586E0E9EBF7
:102F1000F1E0DF011D928A95E9F7FE2C8AC04D870A
:102F20005E878D859E856A8B0E948F156A898823AE
:102F300009F4BECF662309F4BBCF2091BE01822FD6
:102F400082958F7090E002970CF48ECF8091B9013A
:102F50009091BA019A8389831B82DD82CC822E8371
:102F6000CE0101967FCF809590958C0D9D1DACCFA5
:102F7000F62E662309F49CCF75132EC034132CC093
:102F80002091BE0120FD1FC0822F82958F70D9F045
:102F9000D80115962C9315978F3049F08F5F982F95
:102FA0009295907F822F8F70892B15968C93C801F4
:102FB0000E94501586E0F801A9EBB1E001900D9256
:102FC0008A95E1F793CF86E0F801A9EBB1E0019093
:102FD0000D928A95E1F72DC04D875E878D859E8580
:102FE0000E948F15811140CF8091BE018160809336
:102FF000BE01C8010E9450151CC0662309F458CFB9
:103000004D875E878D859E850E948F15882309F4E4
:103010004FCF2ACF811148CF0CC0243031050CF09E
:1030200047CF9F7009F440CFF8019581907F09F058
:103030003BCF8F2D62960FB6F894DEBF0FBECDBF8B
:10304000DF91CF911F910F91FF90EF90DF90CF9084
:1030500008951F93CF93DF93CDB7DEB72C970FB6AC
:10306000F894DEBF0FBECDBF4F83588769877A873C
:103070008B879C87CE0107960E946216882369F091
:103080008F8198852A853B85232BF1F19F3F09F09D
:1030900063C08F3F09F060C037C086E0FE013796FD
:1030A000DE01119601900D928A95E1F76F81788586
:1030B000EA85FB85309741F17F3F11F46F3F21F1A5
:1030C0002091880130E0C9010196877099274091CD
:1030D000870150E08417950709F447C069837A8314
:1030E000FD83EC8396E0929FD001939FB00D112455
:1030F000A757BE4FFE01319601900D929A95E1F7C8
:10310000809388010E94D81516E0809187019091E4
:1031100088018917C1F1189FC001112487579E4F5C
:103120000E946216882379F1E09187011E9FF001C9
:103130001124E757FE4F4081518162817381848160
:1031400095810E94C8158091870190E00196877053
:10315000992780938701D9CF4F81588569857A85D2
:103160008B859C850E94C815CFCF0E948B1510922D
:10317000880110928701E9EBF1E086E0DF011D9202
:103180008A95E9F7C1CF2C960FB6F894DEBF0FBE33
:10319000CDBFDF91CF911F910895EF92FF920F93D2
:1031A0001F93CF93DF938C01892B09F46CC0F12C12
:1031B000EE24E394E8012196F8018491843740F4E9
:1031C000843008F051C0813081F0823019F15BC049
:1031D000853709F444C0A8F19CE7980F903708F0B0
:1031E00052C08F770E94A61241C00E5F1F4FFE0192
:1031F000C49180E28C0F883048F4C7708E2D01C0D6
:10320000880FCA95EAF70E94151C14C08C2F0E94E3
:10321000DE112DC00E5F1F4FFE01C49180E28C0FA6
:10322000883058F4C7708E2D01C0880FCA95EAF710
:103230000E941B1C0E94491C1AC08C2F0E94A612BF
:1032400016C00E5F1F4FFE01C491CC2381F08FE9A1
:103250009FE00197F1F700C00000C150F6CF0E5F6C
:103260001F4FFE01F49003C00E94DE118E018F2DCE
:10327000882309F49FCFEFE9FFE03197F1F700C011
:1032800000008150F5CFDF91CF911F910F91FF90FA
:10329000EF90089508956093C3017093C4018093E3
:1032A000C5019093C6010C9477150F931F9300915D
:1032B000C3011091C4012091C5013091C601DC0108
:1032C000CB01802B912BA22BB32B8093C301909326
:1032D000C401A093C501B093C6011F910F910C9436
:1032E00077150F931F930091C3011091C401209192
:1032F000C5013091C601DC01CB0180239123A223BB
:10330000B3238093C3019093C401A093C501B093EC
:10331000C6011F910F910C9477150F931F93009185
:10332000C3011091C4012091C5013091C601DC0197
:10333000CB0180279127A227B3278093C3019093C5
:10334000C401A093C501B093C6011F910F910C94C5
:1033500077151092BF011092C0011092C101109216
:10336000C2010C94771541E050E060E070E004C0C9
:10337000440F551F661F771F8A95D2F74093BF01F0
:103380005093C0016093C1017093C2010C947715F2
:1033900041E050E060E070E004C0440F551F661F3C
:1033A000771F8A95D2F78091BF019091C001A091BB
:1033B000C101B091C201482B592B6A2B7B2B409342
:1033C000BF015093C0016093C1017093C2010C947E
:1033D000771541E050E060E070E004C0440F551FF5
:1033E000661F771F8A95D2F7409550956095709526
:1033F0008091BF019091C001A091C101B091C20123
:10340000482359236A237B234093BF015093C00173
:103410006093C1017093C2010C94771541E050E0B4
:1034200060E070E004C0440F551F661F771F8A9547
:10343000D2F78091BF019091C001A091C101B091DC
:10344000C201482759276A277B274093BF01509321
:10345000C0016093C1017093C2010C9477150F9362
:103460001F930091BF011091C0012091C1013091C3
:10347000C201DC01CB01802B912BA22BB32B8093BB
:10348000BF019093C001A093C101B093C2011F91ED
:103490000F910C9477150F931F930091BF0110911A
:1034A000C0012091C1013091C201DC01CB01802318
:1034B0009123A223B3238093BF019093C001A093D3
:1034C000C101B093C2011F910F910C9477150F9316
:1034D0001F930091BF011091C0012091C101309153
:1034E000C201DC01CB0180279127A227B32780935B
:1034F000BF019093C001A093C101B093C2011F917D
:103500000F910C9477150895CF92DF92EF92FF926E
:103510000F931F93CF93DF938C01C090C301D09082
:10352000C401E090C501F090C6018091BF01909167
:10353000C001A091C101B091C201C82AD92AEA2ACA
:10354000FB2ACFE1D0E0D701C6010C2E04C0B6950E
:10355000A795979587950A94D2F780FF06C0B80182
:103560008C2F0E94B607019721F4219760F780E025
:1035700001C08C2FDF91CF911F910F91FF90EF90A1
:10358000DF90CF900895CF93DF93EC010E94841ACF
:10359000BE010E94B607DF91CF910895CB010E9432
:1035A000C31A08958091CC0108958093CC010895A9
:1035B0001092CC0108950E944B1D2091CA013091B8
:1035C000CB018217930750F00E944B1D2091CA0136
:1035D0003091CB01821B930B9C010AC00E944B1DB2
:1035E0002091CA013091CB0120953095280F391FC9
:1035F00081E0283B3B4008F480E008958091C901B8
:1036000085958595859508958091C9018770089560
:103610000E944B1D2091C7013091C801821793076A
:10362000A8F00E944B1D2091C7013091C801821B58
:10363000930B883B9B4010F480E013C08091C9013C
:1036400082FB882780F991E089270BC00E944B1DDF
:103650002091C7013091C80120953095820F931FAA
:10366000E8CF8170089598E0899F90011124262B5E
:103670002093C9010E94C8190E944B1D9093C80154
:103680008093C70108951092C9011092C801109249
:10369000C70108952091C901809582238093C901B3
:1036A000982F977089F430E0482F552747FD5095A3
:1036B0002417350749F08595859585950E94E91968
:1036C0001092C8011092C70108959091C901977096
:1036D00081E009F480E0089590910C01992321F094
:1036E00090910D01911109C020910E0130910F01AF
:1036F000F90132969FEF40E01FC0982F969596955E
:1037000096959F3050F5E0910E01F0910F01E90F71
:10371000F11D877021E030E0A90102C0440F551F60
:103720008A95E2F7CA019181892B818308959F3F91
:1037300039F04F5F4E3041F051915813F8CF0DC022
:103740005111F7CF942FF5CF9F3F39F0F901E90FD1
:10375000F11D97FDFA9582830895089590910C01CB
:10376000992321F090910D01911109C020910E0132
:1037700030910F01F9013296205F3F4F1FC0982F03
:103780009695969596959F30F0F4E0910E01F09104
:103790000F01E90FF11D877021E030E0A90102C09F
:1037A000440F551F8A95E2F7CA01809591818923BC
:1037B000818308953196E217F30729F090819813D9
:1037C000F9CF1082F7CF089581E090E0E0910E01EB
:1037D000F0910F01E80FF91F1082019680319105D9
:1037E000A9F708958091E00108959091E001892B57
:1037F0008093E001089580959091E0018923809362
:10380000E00108951092E00108959091DF01892B65
:103810008093DF01089580959091DF018923809343
:10382000DF0108951092DF0108959091DE01892B48
:103830008093DE01089580959091DE018923809325
:10384000DE0108951092DE0108958093CD010E945B
:103850004B1D9093CB018093CA0108951092CD0126
:103860001092CB011092CA0108958091CD01089564
:1038700080910E0190910F01FC0131969C01205F17
:103880003F4F80E0919191118F5FE217F307D1F7DD
:103890000895E0910E01F0910F018091E001808385
:1038A000E0910E01F0910F0190818091DF01892B51
:1038B0008083E0910E01F0910F0190818091DE01F3
:1038C000892B80838091CD01882399F00E94DB1A97
:1038D00081110E942E1CE0910E01F0910F01908148
:1038E0008091CD01892B80830E94381C81110E9418
:1038F0002E1C80910E0190910F010C94CE1020E0AF
:10390000009739F0AC0141505109842395232F5F72
:10391000F7CF822F0895CF92DF92EF92FF926C0142
:10392000EE24FF24C114D104E104F10421F0C70105
:10393000B60120E101C020E0C72ED82EE92EFF24D9
:10394000C114D104E104F10419F0285FC701B601E4
:103950006B017C0154E0F694E794D794C7945A9590
:10396000D1F7C114D104E104F10419F02C5FC701AF
:10397000B6016B017C0142E0F694E794D794C794BA
:103980004A95D1F7C114D104E104F10419F02E5F76
:10399000C701B601DC01CB01B695A7959795879530
:1039A000892B8A2B8B2B09F02F5F822FFF90EF90B2
:1039B000DF90CF9008958091F901843021F1109229
:1039C000E20120E488E190E00FB6F894A895809396
:1039D00060000FBE2093600080E00E94C80983B79A
:1039E000817F846083BF83B7816083BF789488952B
:1039F00083B78E7F83BF88E10FB6F8948093600011
:103A0000109260000FBE089508950E9445030E9421
:103A100058030E94041D0E944D0491E0811101C0D1
:103A200090E0892F08950E948B150E94C2100C947B
:103A3000C8091F920F920FB60F9211248F939F9374
:103A4000AF93BF938091E201811113C08091E30194
:103A50009091E401A091E501B091E6014196A11D8C
:103A6000B11D8093E3019093E401A093E501B0932D
:103A7000E601BF91AF919F918F910F900FBE0F9074
:103A80001F90189582E084BD93E095BD9AEF97BD95
:103A900080936E0008952FB7F8948091E301909180
:103AA000E401A091E501B091E6012FBF0895CF9206
:103AB000DF92EF92FF920F931F932FB7F8944091EC
:103AC000E3015091E4016091E5017091E6012FBF9F
:103AD0006A017B01EE24FF248C0120E030E0C01657
:103AE000D106E206F30610F4415051099A01281B51
:103AF000390BC9011F910F91FF90EF90DF90CF908C
:103B000008951F920F920FB60F9211248F939F93D7
:103B1000AF93BF938091E3019091E401A091E501FF
:103B2000B091E6010196A11DB11D8093E301909330
:103B3000E401A093E501B093E601BF91AF919F919D
:103B40008F910F900FBE0F901F9018950E94BF0D80
:103B5000F8942FEF87EA91E6215080409040E1F7FA
:103B600000C0000087E090EBDC018093020290939C
:103B70000302A0930402B09305029CE088E10FB613
:103B8000F894A895809360000FBE90936000FFCFDB
:103B90000E94001E811102C00E94E61D0E940B1EA1
:103BA0008093E1010E94131E90E09093F4018093B2
:103BB000F30187FB882780F980930D010E940F1E77
:103BC000682F70E080E090E00C944B196DEE7EEF72
:103BD00080E090E00E94D52360E082E090E00E94C7
:103BE000C32360E083E090E00E94C32360E084E0B0
:103BF00090E00E94C32360E085E090E00C94C32332
:103C000080E090E00E94BD2321E08D3E9E4F09F0B0
:103C100020E0822F089582E090E00C94B52383E0A9
:103C200090E00C94B52384E090E00C94B523682FC9
:103C300084E090E00C94C3238091EA0180FF0BC0E4
:103C40006091130185E0689FB00111247595679517
:103C5000759567952BC081FF09C06091130185E0C0
:103C6000689FB00111247595679520C082FF07C039
:103C70006091130185E0689FB001112417C09091F5
:103C8000EB019923D1F060911201961788F72091EA
:103C9000130185E0289F90011124929FA001939F1A
:103CA000500D112470E0CA010E948723603871050D
:103CB00040F46115710539F002C065E070E0862FAF
:103CC00008958FE7089581E008958091EA0180FFCB
:103CD00008C06091110170E07595679575956795BD
:103CE00021C081FF06C06091110170E07595679554
:103CF00019C082FF04C06091110170E010C0909162
:103D0000EB019923C1F0609110019617A0F7809103
:103D10001101899FC001112470E00E94872360383F
:103D2000710528F46115710521F0862F08958FE73C
:103D3000089581E0089561E070E0F4CF803F21F4C0
:103D40000E941C1E819504C0813F29F40E941C1E04
:103D50008093EE010895823F21F40E941C1E8195FC
:103D600004C0833F29F40E941C1E8093ED01089536
:103D7000893F19F40E94651E05C08A3F31F40E94F4
:103D8000651E81958093EF0108958B3F21F40E9479
:103D9000651E819504C08C3F29F40E94651E8093A6
:103DA000F0010895843F21F48091EC01816017C0F7
:103DB000853F21F48091EC01826011C0863F21F49F
:103DC0008091EC0184600BC0873F21F48091EC016D
:103DD000886005C0883F31F48091EC018061809358
:103DE000EC0108958D3F21F48091EA0181600BC0C0
:103DF0008E3F21F48091EA01826005C08F3F29F453
:103E00008091EA0184608093EA010895803F39F44B
:103E10008091EE0187FF6CC01092EE0169C0813F76
:103E200029F48091EE011816BCF362C09091ED0167
:103E3000823F29F497FF5CC01092ED0159C0833F87
:103E400019F41916CCF354C0893F41F48091EF0165
:103E500018160CF04DC01092EF014AC08A3F29F4A9
:103E60008091EF0187FF44C0F6CF8B3F39F48091FA
:103E7000F00187FF3DC01092F0013AC08C3F29F459
:103E80008091F0011816BCF333C0843F21F4809177
:103E9000EC018E7F17C0853F21F48091EC018D7F6E
:103EA00011C0863F21F48091EC018B7F0BC0873FCE
:103EB00021F48091EC01877F05C0883F31F4809127
:103EC000EC018F7E8093EC0113C08D3F21F4809133
:103ED000EA018E7F0BC08E3F21F48091EA018D7F35
:103EE00005C08F3F29F48091EA018B7F8093EA011E
:103EF0008091ED0181110EC08091EE0181110AC007
:103F00008091EF01811106C08091F001811102C002
:103F10001092EB0108958CEE91E00E94D9100E945E
:103F20004B1D9093E8018093E70108951F93CF9371
:103F3000DF938091E7019091E8010E94571DAC0149
:103F40009091EB01992321F02091140130E006C0FB
:103F50002091E9018AE0289F90011124421753071C
:103F600008F486C08091ED01C091EE01D091EF017F
:103F70001091F001811107C0C11176C0D11174C038
:103F8000111172C075C09F3F19F09F5F9093EB01B4
:103F9000181624F40E941C1E8093ED018091ED01FF
:103FA00087FF05C00E941C1E81958093ED011C16A1
:103FB00024F40E941C1E8093EE018091EE0187FF85
:103FC00005C00E941C1E81958093EE016091ED0159
:103FD000662339F1C091EE01CC2319F1772767FDF3
:103FE0007095872F972F0E94982223E333E343E3B2
:103FF0005FE30E94FC220E9465226093ED016C2F1A
:10400000772767FD7095872F972F0E94982223E3CB
:1040100033E343E35FE30E94FC220E946522609346
:10402000EE011D1624F40E94651E8093EF0180911D
:10403000EF0187FF05C00E94651E81958093EF0107
:10404000111624F40E94651E8093F0018091F00106
:1040500087FF05C00E94651E81958093F001DF9166
:10406000CF911F910C948B1F9F3F09F08ECF96CF5D
:10407000DF91CF911F910895ECEEF1E085E0DF0133
:104080001D928A95E9F71092EB011092EA010895CA
:10409000833081F128F4813059F08230D1F00895D5
:1040A000853009F449C0B8F1863009F456C0089546
:1040B0008091E901262F30E0280F311D2F3F310577
:1040C00024F4680F6093E90108958FEF8093E9016C
:1040D000089580911401262F30E0280F311D2F3FC5
:1040E000310524F4680F6093140108958FEF8093D5
:1040F0001401089580911301262F30E0280F311DFF
:104100002F3F310524F4680F6093130108958FEF5A
:1041100080931301089580911201262F30E0280F1B
:10412000311D2F3F310524F4680F6093120108956B
:104130008FEF80931201089580911101262F30E0B6
:10414000280F311D2F3F310524F4680F60931101B2
:1041500008958FEF80931101089580911001262F0B
:1041600030E0280F311D2F3F310524F4680F609394
:10417000100108958FEF809310010895833011F19D
:1041800028F4813049F0823091F00895853081F132
:1041900020F18630C1F108958091E901681720F47B
:1041A000861B8093E90108951092E901089580919A
:1041B0001401681720F4861B80931401089510924F
:1041C0001401089580911301681720F4861B8093D1
:1041D0001301089510921301089580911201681738
:1041E00020F4861B80931201089510921201089505
:1041F00080911101681720F4861B809311010895A6
:1042000010921101089580911001681720F4861B07
:104210008093100108951092100108950F931F9339
:10422000873208F048C08E3108F092C0803109F41E
:104230007CC008F5873009F466C068F4863009F060
:10424000A2C08091E101817F8E7F8093E10181E0B6
:104250008093F20199C08B3009F48EC08E3009F042
:1042600092C08091E10182FB222720F991E0922700
:1042700090FB82F963C0863109F47EC060F481311D
:1042800009F081C00E948B1590910D0181E0892772
:1042900080930D0171C0893109F46EC08B3109F032
:1042A00072C08091E10181FB222720F991E09227E1
:1042B00090FB81F943C0883309F45EC050F4893221
:1042C00009F45CC0853309F459C0873209F456C03B
:1042D0005AC0833409F452C028F48A3308F453C016
:1042E000895337C0883409F04EC00E948B150FEFF8
:1042F00013ED20E3015010402040E1F700C0000022
:104300000E94A61D39C09091E101892F809581708E
:1043100080FB90F929F0966098609093E10134C099
:10432000997F977F9093E10127C08091E10183FB02
:10433000222720F991E0922790FB83F98093E101F5
:104340009923D1F08091E10181608093E10114C053
:104350008D5141E050E060E070E08A019B0104C0B3
:10436000000F111F221F331F8A95D2F7C901B80110
:104370000E944B190E948B1581E006C061E070E03D
:1043800080E090E0F5CF80E01F910F91089580E0EC
:10439000089580E00895CF93C82F8091F201813075
:1043A00079F018F08230E9F186C0E0910E01F091C9
:1043B0000F018081813169F0823209F07EC009C02D
:1043C000E0910E01F0910F018081813111F0823274
:1043D00061F48C2F0E94C721811104C08C2F0E9490
:1043E0000E211DC081E090E01AC08C2F0E94C921CF
:1043F000811114C0C43179F048F4CB3079F0C03168
:1044000009F05FC082E08093F20108C0C93219F060
:10441000C83321F056C01092F20153C081E0817080
:1044200052C0C93281F110F5C43169F1A0F4C7302E
:1044300009F045C01092E90194E190931401809332
:10444000130181E08093120188E08093110188E2DA
:104450008093100134C0CE51C63088F5EC2FF0E0C7
:10446000E75DFE4F80818093F10129C0CE34E9F0F1
:1044700020F4CB3421F56AE013C0C13579F0C235A0
:10448000F1F461E00DC08091F101882319F01092E0
:10449000F10115C081E08093F20115C061E006C012
:1044A0008091F1010E9448200AC06AE08091F101E8
:1044B0000E94BE2004C01092F20180E004C081E09E
:1044C00002C080E0ACCFCF91089504D06894B111C0
:1044D0008DC0089570D088F09F5790F0B92F99271C
:1044E000B751A0F0D1F0660F771F881F991F1AF0FF
:1044F000BA95C9F712C0B13081F077D0B1E0089514
:1045000074C0672F782F8827B85F39F0B93FCCF394
:10451000869577956795B395D9F73EF490958095F4
:10452000709561957F4F8F4F9F4F0895E89409C014
:1045300097FB3EF490958095709561957F4F8F4FD6
:104540009F4F9923A9F0F92F96E9BB279395F695EC
:10455000879577956795B795F111F8CFFAF4BB0F6A
:1045600011F460FF1BC06F5F7F4F8F4F9F4F16C0CE
:10457000882311F096E911C0772321F09EE8872F58
:10458000762F05C0662371F096E8862F70E060E014
:104590002AF09A95660F771F881FDAF7880F96958D
:1045A000879597F9089557FD9058440F551F59F076
:1045B0005F3F71F04795880F97FB991F61F09F3F10
:1045C00079F087950895121613061406551FF2CF39
:1045D0004695F1DF08C0161617061806991FF1CF89
:1045E00086957105610508940895E894BB276627B0
:1045F0007727CB0197F908950BD078C069D028F0C0
:104600006ED018F0952309F05AC05FC01124EECF88
:10461000CADFA0F3959FD1F3950F50E0551F629F1D
:10462000F001729FBB27F00DB11D639FAA27F00D0B
:10463000B11DAA1F649F6627B00DA11D661F829F32
:104640002227B00DA11D621F739FB00DA11D621F17
:10465000839FA00D611D221F749F3327A00D611D34
:10466000231F849F600D211D822F762F6A2F112416
:104670009F5750408AF0E1F088234AF0EE0FFF1F69
:10468000BB1F661F771F881F91505040A9F79E3FA0
:10469000510570F014C0AACF5F3FECF3983EDCF3F5
:1046A000869577956795B795F795E7959F5FC1F7DD
:1046B000FE2B880F911D9695879597F9089597F988
:1046C0009F6780E870E060E008959FEF80EC0895B8
:1046D00000240A94161617061806090608950024E1
:1046E0000A9412161306140605060895092E03945B
:1046F000000C11F4882352F0BB0F40F4BF2B11F4CF
:1047000060FF04C06F5F7F4F8F4F9F4F089597FBEF
:10471000072E16F4009407D077FD09D00E94A1233C
:1047200007FC05D03EF4909581959F4F08957095B4
:1047300061957F4F0895EE0FFF1F0590F491E02DD6
:104740000994AA1BBB1B51E107C0AA1FBB1FA617D8
:10475000B70710F0A61BB70B881F991F5A95A9F72A
:1047600080959095BC01CD010895F999FECF92BD39
:1047700081BDF89A992780B50895A8E1B0E042E09C
:1047800050E00C94DD23262FF999FECF92BD81BD18
:10479000F89A019700B4021639F01FBA20BD0FB67F
:1047A000F894FA9AF99A0FBE08950196272F0E945D
:1047B000C4230C94C323DC01CB01FC01F999FECF87
:1047C00006C0F2BDE1BDF89A319600B40D92415099
:0A47D0005040B8F70895F894FFCFA9
:1047DA000220CA09580A350A010ACD090101CE0187
:1047EA002808010214404D3639A10454041E04E578
:1047FA000378039103AA03C303010203040506070E
:04480A000809000099
:00000001FF
